{
  "contractName": "credict",
  "abi": [
    {
      "inputs": [
        {
          "internalType": "uint256",
          "name": "_personalexpense",
          "type": "uint256"
        },
        {
          "internalType": "uint256",
          "name": "_travelexpense",
          "type": "uint256"
        },
        {
          "internalType": "uint256",
          "name": "_stay",
          "type": "uint256"
        }
      ],
      "name": "amtrem",
      "outputs": [],
      "stateMutability": "nonpayable",
      "type": "function"
    },
    {
      "inputs": [],
      "name": "finalresult",
      "outputs": [
        {
          "internalType": "uint256",
          "name": "",
          "type": "uint256"
        }
      ],
      "stateMutability": "view",
      "type": "function"
    }
  ],
  "bytecode": "0x608060405261271060015534801561001657600080fd5b506101fe806100266000396000f3fe608060405234801561001057600080fd5b50600436106100365760003560e01c80631217bc831461003b578063a12aa52714610057575b600080fd5b610055600480360381019061005091906100e8565b610075565b005b61005f6100a4565b60405161006c919061014a565b60405180910390f35b8082846001546100859190610194565b61008f9190610194565b6100999190610194565b600081905550505050565b60008054905090565b600080fd5b6000819050919050565b6100c5816100b2565b81146100d057600080fd5b50565b6000813590506100e2816100bc565b92915050565b600080600060608486031215610101576101006100ad565b5b600061010f868287016100d3565b9350506020610120868287016100d3565b9250506040610131868287016100d3565b9150509250925092565b610144816100b2565b82525050565b600060208201905061015f600083018461013b565b92915050565b7f4e487b7100000000000000000000000000000000000000000000000000000000600052601160045260246000fd5b600061019f826100b2565b91506101aa836100b2565b92508282039050818111156101c2576101c1610165565b5b9291505056fea2646970667358221220cd17bcad954e7eb1d59feb939535ca537f834b176c088fd5ffc577b7801d372564736f6c63430008110033",
  "immutableReferences": {},
  "source": "// SPDX-License-Identifier: GPL-3.0\r\n//Ishita More 2019130039\r\n\r\npragma solidity 0.8.17;\r\ncontract credict{\r\n\r\n    uint credit_limit;\r\n    uint given_credit_limit = 10000;\r\n\r\n    function amtrem(uint _personalexpense, uint _travelexpense, uint _stay) public {\r\n        credit_limit = given_credit_limit - _personalexpense - _travelexpense - _stay;\r\n    }\r\n\r\n    function finalresult() view public returns(uint){\r\n        return(credit_limit);\r\n    }\r\n\r\n}",
  "sourcePath": "C:\\Users\\Ishita More\\OneDrive\\Desktop\\TruffleTutorial\\New\\contracts\\CreditLimit.sol",
  "compiler": {
    "name": "solc",
    "version": "0.8.17+commit.8df45f5f.Emscripten.clang"
  },
  "schemaVersion": "3.4.10",
  "updatedAt": "2022-11-01T09:51:26.834Z",
  "devdoc": {
    "kind": "dev",
    "methods": {},
    "version": 1
  },
  "userdoc": {
    "kind": "user",
    "methods": {},
    "version": 1
  }
}